{
  "contractName": "Migrations",
  "abi": [
    {
      "inputs": [],
      "name": "lastCompletedMigration",
      "outputs": [
        {
          "internalType": "uint256",
          "name": "",
          "type": "uint256"
        }
      ],
      "stateMutability": "view",
      "type": "function",
      "constant": true
    },
    {
      "inputs": [],
      "name": "owner",
      "outputs": [
        {
          "internalType": "address",
          "name": "",
          "type": "address"
        }
      ],
      "stateMutability": "view",
      "type": "function",
      "constant": true
    },
    {
      "inputs": [
        {
          "internalType": "uint256",
          "name": "completed",
          "type": "uint256"
        }
      ],
      "name": "setCompleted",
      "outputs": [],
      "stateMutability": "nonpayable",
      "type": "function"
    }
  ],
  "bytecode": "0x6080604052336000806101000a81548173ffffffffffffffffffffffffffffffffffffffff021916908373ffffffffffffffffffffffffffffffffffffffff16021790555034801561005057600080fd5b506102f8806100606000396000f3fe608060405234801561001057600080fd5b50600436106100415760003560e01c80638da5cb5b14610046578063fbdbad3c14610064578063fdacd57614610082575b600080fd5b61004e61009e565b60405161005b91906101df565b60405180910390f35b61006c6100c2565b604051610079919061021a565b60405180910390f35b61009c60048036038101906100979190610175565b6100c8565b005b60008054906101000a900473ffffffffffffffffffffffffffffffffffffffff1681565b60015481565b60008054906101000a900473ffffffffffffffffffffffffffffffffffffffff1673ffffffffffffffffffffffffffffffffffffffff163373ffffffffffffffffffffffffffffffffffffffff1614610156576040517f08c379a000000000000000000000000000000000000000000000000000000000815260040161014d906101fa565b60405180910390fd5b8060018190555050565b60008135905061016f816102ab565b92915050565b60006020828403121561018757600080fd5b600061019584828501610160565b91505092915050565b6101a781610246565b82525050565b60006101ba601f83610235565b91506101c582610282565b602082019050919050565b6101d981610278565b82525050565b60006020820190506101f4600083018461019e565b92915050565b60006020820190508181036000830152610213816101ad565b9050919050565b600060208201905061022f60008301846101d0565b92915050565b600082825260208201905092915050565b600061025182610258565b9050919050565b600073ffffffffffffffffffffffffffffffffffffffff82169050919050565b6000819050919050565b7f66756e6374696f6e206973207265737472696374656420746f206f776e657200600082015250565b6102b481610278565b81146102bf57600080fd5b5056fea26469706673582212200a8d9eee596696dc777248ee9a1e1a7ceb8aa3706b5ca924807fe1656c4a4f1d64736f6c63430008010033",
  "immutableReferences": {},
  "source": "// SPDX-License-Identifier: CC-BY-4.0\npragma solidity 0.8.1;\n\ncontract Migrations {\n    address public owner = msg.sender;\n    uint256 public lastCompletedMigration;\n\n    modifier restricted() {\n        require(msg.sender == owner, \"function is restricted to owner\");\n        _;\n    }\n\n    function setCompleted(uint256 completed) public restricted {\n        lastCompletedMigration = completed;\n    }\n}\n",
  "sourcePath": "/home/cetin/boxyz/contract/contracts/Migrations.sol",
  "compiler": {
    "name": "solc",
    "version": "0.8.1+commit.df193b15.Emscripten.clang"
  },
  "schemaVersion": "3.4.6",
  "updatedAt": "2022-04-16T09:55:30.264Z",
  "networkType": "ethereum",
  "devdoc": {
    "kind": "dev",
    "methods": {},
    "version": 1
  },
  "userdoc": {
    "kind": "user",
    "methods": {},
    "version": 1
  }
}