{
  "contractName": "Box",
  "abi": [
    {
      "inputs": [
        {
          "internalType": "uint256",
          "name": "_id",
          "type": "uint256"
        },
        {
          "components": [
            {
              "internalType": "uint16",
              "name": "r",
              "type": "uint16"
            },
            {
              "internalType": "uint16",
              "name": "g",
              "type": "uint16"
            },
            {
              "internalType": "uint16",
              "name": "b",
              "type": "uint16"
            }
          ],
          "internalType": "struct Box.Color",
          "name": "_color",
          "type": "tuple"
        },
        {
          "components": [
            {
              "internalType": "uint16",
              "name": "x",
              "type": "uint16"
            },
            {
              "internalType": "uint16",
              "name": "y",
              "type": "uint16"
            },
            {
              "internalType": "uint16",
              "name": "z",
              "type": "uint16"
            }
          ],
          "internalType": "struct Box.Size",
          "name": "_size",
          "type": "tuple"
        },
        {
          "components": [
            {
              "internalType": "address",
              "name": "p1",
              "type": "address"
            },
            {
              "internalType": "address",
              "name": "p2",
              "type": "address"
            }
          ],
          "internalType": "struct Box.Parents",
          "name": "_parents",
          "type": "tuple"
        }
      ],
      "stateMutability": "nonpayable",
      "type": "constructor"
    },
    {
      "anonymous": false,
      "inputs": [
        {
          "indexed": true,
          "internalType": "address",
          "name": "previousOwner",
          "type": "address"
        },
        {
          "indexed": true,
          "internalType": "address",
          "name": "newOwner",
          "type": "address"
        }
      ],
      "name": "OwnershipTransferred",
      "type": "event"
    },
    {
      "inputs": [],
      "name": "color",
      "outputs": [
        {
          "internalType": "uint16",
          "name": "r",
          "type": "uint16"
        },
        {
          "internalType": "uint16",
          "name": "g",
          "type": "uint16"
        },
        {
          "internalType": "uint16",
          "name": "b",
          "type": "uint16"
        }
      ],
      "stateMutability": "view",
      "type": "function"
    },
    {
      "inputs": [],
      "name": "id",
      "outputs": [
        {
          "internalType": "uint256",
          "name": "",
          "type": "uint256"
        }
      ],
      "stateMutability": "view",
      "type": "function"
    },
    {
      "inputs": [],
      "name": "listed",
      "outputs": [
        {
          "internalType": "bool",
          "name": "",
          "type": "bool"
        }
      ],
      "stateMutability": "view",
      "type": "function"
    },
    {
      "inputs": [],
      "name": "owner",
      "outputs": [
        {
          "internalType": "address",
          "name": "",
          "type": "address"
        }
      ],
      "stateMutability": "view",
      "type": "function"
    },
    {
      "inputs": [],
      "name": "parents",
      "outputs": [
        {
          "internalType": "address",
          "name": "p1",
          "type": "address"
        },
        {
          "internalType": "address",
          "name": "p2",
          "type": "address"
        }
      ],
      "stateMutability": "view",
      "type": "function"
    },
    {
      "inputs": [],
      "name": "price",
      "outputs": [
        {
          "internalType": "uint256",
          "name": "",
          "type": "uint256"
        }
      ],
      "stateMutability": "view",
      "type": "function"
    },
    {
      "inputs": [],
      "name": "renounceOwnership",
      "outputs": [],
      "stateMutability": "nonpayable",
      "type": "function"
    },
    {
      "inputs": [],
      "name": "size",
      "outputs": [
        {
          "internalType": "uint16",
          "name": "x",
          "type": "uint16"
        },
        {
          "internalType": "uint16",
          "name": "y",
          "type": "uint16"
        },
        {
          "internalType": "uint16",
          "name": "z",
          "type": "uint16"
        }
      ],
      "stateMutability": "view",
      "type": "function"
    },
    {
      "inputs": [
        {
          "internalType": "address",
          "name": "newOwner",
          "type": "address"
        }
      ],
      "name": "transferOwnership",
      "outputs": [],
      "stateMutability": "nonpayable",
      "type": "function"
    },
    {
      "inputs": [
        {
          "internalType": "uint256",
          "name": "_price",
          "type": "uint256"
        }
      ],
      "name": "list",
      "outputs": [],
      "stateMutability": "nonpayable",
      "type": "function"
    },
    {
      "inputs": [],
      "name": "unlist",
      "outputs": [],
      "stateMutability": "nonpayable",
      "type": "function"
    },
    {
      "inputs": [],
      "name": "buy",
      "outputs": [],
      "stateMutability": "payable",
      "type": "function"
    },
    {
      "inputs": [
        {
          "internalType": "contract Box",
          "name": "_other",
          "type": "address"
        }
      ],
      "name": "avgColor",
      "outputs": [
        {
          "components": [
            {
              "internalType": "uint16",
              "name": "r",
              "type": "uint16"
            },
            {
              "internalType": "uint16",
              "name": "g",
              "type": "uint16"
            },
            {
              "internalType": "uint16",
              "name": "b",
              "type": "uint16"
            }
          ],
          "internalType": "struct Box.Color",
          "name": "",
          "type": "tuple"
        }
      ],
      "stateMutability": "view",
      "type": "function"
    },
    {
      "inputs": [
        {
          "internalType": "contract Box",
          "name": "_other",
          "type": "address"
        }
      ],
      "name": "avgSize",
      "outputs": [
        {
          "components": [
            {
              "internalType": "uint16",
              "name": "x",
              "type": "uint16"
            },
            {
              "internalType": "uint16",
              "name": "y",
              "type": "uint16"
            },
            {
              "internalType": "uint16",
              "name": "z",
              "type": "uint16"
            }
          ],
          "internalType": "struct Box.Size",
          "name": "",
          "type": "tuple"
        }
      ],
      "stateMutability": "view",
      "type": "function"
    },
    {
      "inputs": [],
      "name": "birthdate",
      "outputs": [
        {
          "internalType": "uint256",
          "name": "",
          "type": "uint256"
        }
      ],
      "stateMutability": "view",
      "type": "function"
    }
  ],
  "bytecode": "0x60806040526000600760006101000a81548160ff0219169083151502179055503480156200002c57600080fd5b50604051620018443803806200184483398181016040528101906200005291906200042b565b6200007262000066620001f560201b60201c565b620001fd60201b60201c565b8360018190555082600260008201518160000160006101000a81548161ffff021916908361ffff16021790555060208201518160000160026101000a81548161ffff021916908361ffff16021790555060408201518160000160046101000a81548161ffff021916908361ffff16021790555090505081600360008201518160000160006101000a81548161ffff021916908361ffff16021790555060208201518160000160026101000a81548161ffff021916908361ffff16021790555060408201518160000160046101000a81548161ffff021916908361ffff16021790555090505080600460008201518160000160006101000a81548173ffffffffffffffffffffffffffffffffffffffff021916908373ffffffffffffffffffffffffffffffffffffffff16021790555060208201518160010160006101000a81548173ffffffffffffffffffffffffffffffffffffffff021916908373ffffffffffffffffffffffffffffffffffffffff16021790555090505050505050620005d1565b600033905090565b60008060009054906101000a900473ffffffffffffffffffffffffffffffffffffffff169050816000806101000a81548173ffffffffffffffffffffffffffffffffffffffff021916908373ffffffffffffffffffffffffffffffffffffffff1602179055508173ffffffffffffffffffffffffffffffffffffffff168173ffffffffffffffffffffffffffffffffffffffff167f8be0079c531659141344cd1fd0a4f28419497f9722a3daafe3b4186f6b6457e060405160405180910390a35050565b600081519050620002d28162000583565b92915050565b600060608284031215620002eb57600080fd5b620002f7606062000498565b905060006200030984828501620003fd565b60008301525060206200031f84828501620003fd565b60208301525060406200033584828501620003fd565b60408301525092915050565b6000604082840312156200035457600080fd5b62000360604062000498565b905060006200037284828501620002c1565b60008301525060206200038884828501620002c1565b60208301525092915050565b600060608284031215620003a757600080fd5b620003b3606062000498565b90506000620003c584828501620003fd565b6000830152506020620003db84828501620003fd565b6020830152506040620003f184828501620003fd565b60408301525092915050565b6000815190506200040e816200059d565b92915050565b6000815190506200042581620005b7565b92915050565b60008060008061012085870312156200044357600080fd5b6000620004538782880162000414565b94505060206200046687828801620002d8565b9350506080620004798782880162000394565b92505060e06200048c8782880162000341565b91505092959194509250565b6000620004a4620004b7565b9050620004b282826200050d565b919050565b6000604051905090565b6000620004ce82620004e3565b9050919050565b600061ffff82169050919050565b600073ffffffffffffffffffffffffffffffffffffffff82169050919050565b6000819050919050565b620005188262000572565b810181811067ffffffffffffffff821117156200053a576200053962000543565b5b80604052505050565b7f4e487b7100000000000000000000000000000000000000000000000000000000600052604160045260246000fd5b6000601f19601f8301169050919050565b6200058e81620004c1565b81146200059a57600080fd5b50565b620005a881620004d5565b8114620005b457600080fd5b50565b620005c28162000503565b8114620005ce57600080fd5b50565b61126380620005e16000396000f3fe6080604052600436106100e85760003560e01c8063a035b1fe1161008a578063af640d0f11610059578063af640d0f14610290578063c9dd1a23146102bb578063cf08fed5146102f8578063f2fde38b14610325576100e8565b8063a035b1fe14610207578063a0d5850114610232578063a54cf5a014610249578063a6f2ae3a14610286576100e8565b8063715018a6116100c6578063715018a61461016f57806380c9419e146101865780638da5cb5b146101af578063949d225d146101da576100e8565b80631747a57b146100ed57806317b222e1146101185780634f72b54b14610144575b600080fd5b3480156100f957600080fd5b5061010261034e565b60405161010f9190610ea4565b60405180910390f35b34801561012457600080fd5b5061012d610361565b60405161013b929190610e7b565b60405180910390f35b34801561015057600080fd5b506101596103b3565b6040516101669190610fac565b60405180910390f35b34801561017b57600080fd5b506101846103bb565b005b34801561019257600080fd5b506101ad60048036038101906101a89190610cdc565b610443565b005b3480156101bb57600080fd5b506101c46104e4565b6040516101d19190610e60565b60405180910390f35b3480156101e657600080fd5b506101ef61050d565b6040516101fe93929190610f75565b60405180910390f35b34801561021357600080fd5b5061021c61054f565b6040516102299190610fac565b60405180910390f35b34801561023e57600080fd5b50610247610555565b005b34801561025557600080fd5b50610270600480360381019061026b9190610c64565b6105ee565b60405161027d9190610f3f565b60405180910390f35b61028e610734565b005b34801561029c57600080fd5b506102a561083b565b6040516102b29190610fac565b60405180910390f35b3480156102c757600080fd5b506102e260048036038101906102dd9190610c64565b610841565b6040516102ef9190610f5a565b60405180910390f35b34801561030457600080fd5b5061030d610987565b60405161031c93929190610f75565b60405180910390f35b34801561033157600080fd5b5061034c60048036038101906103479190610c3b565b6109c9565b005b600760009054906101000a900460ff1681565b60048060000160009054906101000a900473ffffffffffffffffffffffffffffffffffffffff16908060010160009054906101000a900473ffffffffffffffffffffffffffffffffffffffff16905082565b600042905090565b6103c3610ac1565b73ffffffffffffffffffffffffffffffffffffffff166103e16104e4565b73ffffffffffffffffffffffffffffffffffffffff1614610437576040517f08c379a000000000000000000000000000000000000000000000000000000000815260040161042e90610f1f565b60405180910390fd5b6104416000610ac9565b565b61044b610ac1565b73ffffffffffffffffffffffffffffffffffffffff166104696104e4565b73ffffffffffffffffffffffffffffffffffffffff16146104bf576040517f08c379a00000000000000000000000000000000000000000000000000000000081526004016104b690610f1f565b60405180910390fd5b806006819055506001600760006101000a81548160ff02191690831515021790555050565b60008060009054906101000a900473ffffffffffffffffffffffffffffffffffffffff16905090565b60038060000160009054906101000a900461ffff16908060000160029054906101000a900461ffff16908060000160049054906101000a900461ffff16905083565b60065481565b61055d610ac1565b73ffffffffffffffffffffffffffffffffffffffff1661057b6104e4565b73ffffffffffffffffffffffffffffffffffffffff16146105d1576040517f08c379a00000000000000000000000000000000000000000000000000000000081526004016105c890610f1f565b60405180910390fd5b6000600760006101000a81548160ff021916908315150217905550565b6105f6610b8d565b60008060008473ffffffffffffffffffffffffffffffffffffffff1663cf08fed56040518163ffffffff1660e01b815260040160606040518083038186803b15801561064157600080fd5b505afa158015610655573d6000803e3d6000fd5b505050506040513d601f19601f820116820180604052508101906106799190610c8d565b8093508194508295505050506040518060600160405280600285600260000160009054906101000a900461ffff166106b19190610fd8565b6106bb9190611010565b61ffff168152602001600284600260000160029054906101000a900461ffff166106e59190610fd8565b6106ef9190611010565b61ffff168152602001600283600260000160049054906101000a900461ffff166107199190610fd8565b6107239190611010565b61ffff168152509350505050919050565b600760009054906101000a900460ff16610783576040517f08c379a000000000000000000000000000000000000000000000000000000000815260040161077a90610ebf565b60405180910390fd5b60065434146107c7576040517f08c379a00000000000000000000000000000000000000000000000000000000081526004016107be90610eff565b60405180910390fd5b6000600760006101000a81548160ff0219169083151502179055506107ea6104e4565b73ffffffffffffffffffffffffffffffffffffffff166108fc349081150290604051600060405180830381858888f1935050505015801561082f573d6000803e3d6000fd5b5061083933610ac9565b565b60015481565b610849610bba565b60008060008473ffffffffffffffffffffffffffffffffffffffff1663949d225d6040518163ffffffff1660e01b815260040160606040518083038186803b15801561089457600080fd5b505afa1580156108a8573d6000803e3d6000fd5b505050506040513d601f19601f820116820180604052508101906108cc9190610c8d565b8093508194508295505050506040518060600160405280600285600360000160009054906101000a900461ffff166109049190610fd8565b61090e9190611010565b61ffff168152602001600284600360000160029054906101000a900461ffff166109389190610fd8565b6109429190611010565b61ffff168152602001600283600360000160049054906101000a900461ffff1661096c9190610fd8565b6109769190611010565b61ffff168152509350505050919050565b60028060000160009054906101000a900461ffff16908060000160029054906101000a900461ffff16908060000160049054906101000a900461ffff16905083565b6109d1610ac1565b73ffffffffffffffffffffffffffffffffffffffff166109ef6104e4565b73ffffffffffffffffffffffffffffffffffffffff1614610a45576040517f08c379a0000000000000000000000000000000000000000000000000000000008152600401610a3c90610f1f565b60405180910390fd5b600073ffffffffffffffffffffffffffffffffffffffff168173ffffffffffffffffffffffffffffffffffffffff161415610ab5576040517f08c379a0000000000000000000000000000000000000000000000000000000008152600401610aac90610edf565b60405180910390fd5b610abe81610ac9565b50565b600033905090565b60008060009054906101000a900473ffffffffffffffffffffffffffffffffffffffff169050816000806101000a81548173ffffffffffffffffffffffffffffffffffffffff021916908373ffffffffffffffffffffffffffffffffffffffff1602179055508173ffffffffffffffffffffffffffffffffffffffff168173ffffffffffffffffffffffffffffffffffffffff167f8be0079c531659141344cd1fd0a4f28419497f9722a3daafe3b4186f6b6457e060405160405180910390a35050565b6040518060600160405280600061ffff168152602001600061ffff168152602001600061ffff1681525090565b6040518060600160405280600061ffff168152602001600061ffff168152602001600061ffff1681525090565b600081359050610bf6816111d1565b92915050565b600081359050610c0b816111e8565b92915050565b600081519050610c20816111ff565b92915050565b600081359050610c3581611216565b92915050565b600060208284031215610c4d57600080fd5b6000610c5b84828501610be7565b91505092915050565b600060208284031215610c7657600080fd5b6000610c8484828501610bfc565b91505092915050565b600080600060608486031215610ca257600080fd5b6000610cb086828701610c11565b9350506020610cc186828701610c11565b9250506040610cd286828701610c11565b9150509250925092565b600060208284031215610cee57600080fd5b6000610cfc84828501610c26565b91505092915050565b610d0e81611041565b82525050565b610d1d81611053565b82525050565b6000610d30601183610fc7565b9150610d3b82611107565b602082019050919050565b6000610d53602683610fc7565b9150610d5e82611130565b604082019050919050565b6000610d76600d83610fc7565b9150610d818261117f565b602082019050919050565b6000610d99602083610fc7565b9150610da4826111a8565b602082019050919050565b606082016000820151610dc56000850182610e33565b506020820151610dd86020850182610e33565b506040820151610deb6040850182610e33565b50505050565b606082016000820151610e076000850182610e33565b506020820151610e1a6020850182610e33565b506040820151610e2d6040850182610e33565b50505050565b610e3c81611071565b82525050565b610e4b81611071565b82525050565b610e5a8161109f565b82525050565b6000602082019050610e756000830184610d05565b92915050565b6000604082019050610e906000830185610d05565b610e9d6020830184610d05565b9392505050565b6000602082019050610eb96000830184610d14565b92915050565b60006020820190508181036000830152610ed881610d23565b9050919050565b60006020820190508181036000830152610ef881610d46565b9050919050565b60006020820190508181036000830152610f1881610d69565b9050919050565b60006020820190508181036000830152610f3881610d8c565b9050919050565b6000606082019050610f546000830184610daf565b92915050565b6000606082019050610f6f6000830184610df1565b92915050565b6000606082019050610f8a6000830186610e42565b610f976020830185610e42565b610fa46040830184610e42565b949350505050565b6000602082019050610fc16000830184610e51565b92915050565b600082825260208201905092915050565b6000610fe382611071565b9150610fee83611071565b92508261ffff03821115611005576110046110a9565b5b828201905092915050565b600061101b82611071565b915061102683611071565b925082611036576110356110d8565b5b828204905092915050565b600061104c8261107f565b9050919050565b60008115159050919050565b600061106a82611041565b9050919050565b600061ffff82169050919050565b600073ffffffffffffffffffffffffffffffffffffffff82169050919050565b6000819050919050565b7f4e487b7100000000000000000000000000000000000000000000000000000000600052601160045260246000fd5b7f4e487b7100000000000000000000000000000000000000000000000000000000600052601260045260246000fd5b7f626f78206973206e6f74206c6973746564000000000000000000000000000000600082015250565b7f4f776e61626c653a206e6577206f776e657220697320746865207a65726f206160008201527f6464726573730000000000000000000000000000000000000000000000000000602082015250565b7f696e76616c696420707269636500000000000000000000000000000000000000600082015250565b7f4f776e61626c653a2063616c6c6572206973206e6f7420746865206f776e6572600082015250565b6111da81611041565b81146111e557600080fd5b50565b6111f18161105f565b81146111fc57600080fd5b50565b61120881611071565b811461121357600080fd5b50565b61121f8161109f565b811461122a57600080fd5b5056fea26469706673582212202d3f3ed8c9804bcc35f63dbf6cb4ab44a84d4e5406525abe67368ce767a8d73864736f6c63430008010033",
  "immutableReferences": {},
  "source": "// SPDX-License-Identifier: CC-BY-4.0\npragma solidity 0.8.1;\n\nimport \"openzeppelin-solidity/contracts/access/Ownable.sol\";\n\ncontract Box is Ownable {\n    uint256 public id;\n\n    Color public color;\n    Size public size;\n    Parents public parents;\n\n    uint256 public price;\n    bool public listed = false;\n\n    struct Color {\n        uint16 r;\n        uint16 g;\n        uint16 b;\n    }\n\n    struct Size {\n        uint16 x;\n        uint16 y;\n        uint16 z;\n    }\n\n    struct Parents {\n        address p1;\n        address p2;\n    }\n\n    constructor(\n        uint256 _id,\n        Color memory _color,\n        Size memory _size,\n        Parents memory _parents\n    ) {\n        id = _id;\n        color = _color;\n        size = _size;\n        parents = _parents;\n    }\n\n    function list(uint256 _price) public onlyOwner {\n        price = _price;\n        listed = true;\n    }\n\n    function unlist() public onlyOwner {\n        listed = false;\n    }\n\n    function buy() public payable {\n        require(listed, \"box is not listed\");\n        require(msg.value == price, \"invalid price\");\n        listed = false;\n\n        payable(owner()).transfer(msg.value);\n        _transferOwnership(msg.sender);\n    }\n\n    function avgColor(Box _other) public view returns (Color memory) {\n        uint16 r;\n        uint16 g;\n        uint16 b;\n        (r, g, b) = _other.color();\n\n        return Color((color.r + r) / 2, (color.g + g) / 2, (color.b + b) / 2);\n    }\n\n    function avgSize(Box _other) public view returns (Size memory) {\n        uint16 x;\n        uint16 y;\n        uint16 z;\n        (x, y, z) = _other.size();\n\n        return Size((size.x + x) / 2, (size.y + y) / 2, (size.z + z) / 2);\n    }\n\n    function birthdate() public view returns (uint256) {\n        return block.timestamp;\n    }\n}\n",
  "sourcePath": "/home/cetin/boxyz/contract/contracts/Box.sol",
  "compiler": {
    "name": "solc",
    "version": "0.8.1+commit.df193b15.Emscripten.clang"
  },
  "schemaVersion": "3.4.6",
  "updatedAt": "2022-04-13T22:58:47.932Z",
  "devdoc": {
    "kind": "dev",
    "methods": {
      "owner()": {
        "details": "Returns the address of the current owner."
      },
      "renounceOwnership()": {
        "details": "Leaves the contract without owner. It will not be possible to call `onlyOwner` functions anymore. Can only be called by the current owner. NOTE: Renouncing ownership will leave the contract without an owner, thereby removing any functionality that is only available to the owner."
      },
      "transferOwnership(address)": {
        "details": "Transfers ownership of the contract to a new account (`newOwner`). Can only be called by the current owner."
      }
    },
    "version": 1
  },
  "userdoc": {
    "kind": "user",
    "methods": {},
    "version": 1
  }
}