{
  "contractName": "BoxFactory",
  "abi": [
    {
      "anonymous": false,
      "inputs": [
        {
          "indexed": true,
          "internalType": "address",
          "name": "previousOwner",
          "type": "address"
        },
        {
          "indexed": true,
          "internalType": "address",
          "name": "newOwner",
          "type": "address"
        }
      ],
      "name": "OwnershipTransferred",
      "type": "event"
    },
    {
      "inputs": [],
      "name": "owner",
      "outputs": [
        {
          "internalType": "address",
          "name": "",
          "type": "address"
        }
      ],
      "stateMutability": "view",
      "type": "function",
      "constant": true
    },
    {
      "inputs": [],
      "name": "renounceOwnership",
      "outputs": [],
      "stateMutability": "nonpayable",
      "type": "function"
    },
    {
      "inputs": [
        {
          "internalType": "address",
          "name": "newOwner",
          "type": "address"
        }
      ],
      "name": "transferOwnership",
      "outputs": [],
      "stateMutability": "nonpayable",
      "type": "function"
    },
    {
      "inputs": [],
      "name": "counter",
      "outputs": [
        {
          "internalType": "uint256",
          "name": "",
          "type": "uint256"
        }
      ],
      "stateMutability": "view",
      "type": "function",
      "constant": true
    },
    {
      "inputs": [
        {
          "internalType": "uint256",
          "name": "_index",
          "type": "uint256"
        }
      ],
      "name": "get",
      "outputs": [
        {
          "internalType": "contract Box",
          "name": "",
          "type": "address"
        }
      ],
      "stateMutability": "view",
      "type": "function",
      "constant": true
    },
    {
      "inputs": [
        {
          "internalType": "uint256",
          "name": "_index",
          "type": "uint256"
        }
      ],
      "name": "getBreedCount",
      "outputs": [
        {
          "internalType": "uint8",
          "name": "",
          "type": "uint8"
        }
      ],
      "stateMutability": "view",
      "type": "function",
      "constant": true
    },
    {
      "inputs": [],
      "name": "create",
      "outputs": [],
      "stateMutability": "nonpayable",
      "type": "function"
    },
    {
      "inputs": [
        {
          "internalType": "address",
          "name": "owner",
          "type": "address"
        }
      ],
      "name": "ownedBoxes",
      "outputs": [
        {
          "internalType": "uint256[]",
          "name": "",
          "type": "uint256[]"
        }
      ],
      "stateMutability": "view",
      "type": "function",
      "constant": true
    },
    {
      "inputs": [
        {
          "internalType": "uint256",
          "name": "p1",
          "type": "uint256"
        },
        {
          "internalType": "uint256",
          "name": "p2",
          "type": "uint256"
        }
      ],
      "name": "breed",
      "outputs": [],
      "stateMutability": "payable",
      "type": "function",
      "payable": true
    },
    {
      "inputs": [],
      "name": "withdraw",
      "outputs": [],
      "stateMutability": "nonpayable",
      "type": "function"
    }
  ],
  "bytecode": "0x6080604052600060035534801561001557600080fd5b5061003261002761003760201b60201c565b61003f60201b60201c565b610103565b600033905090565b60008060009054906101000a900473ffffffffffffffffffffffffffffffffffffffff169050816000806101000a81548173ffffffffffffffffffffffffffffffffffffffff021916908373ffffffffffffffffffffffffffffffffffffffff1602179055508173ffffffffffffffffffffffffffffffffffffffff168173ffffffffffffffffffffffffffffffffffffffff167f8be0079c531659141344cd1fd0a4f28419497f9722a3daafe3b4186f6b6457e060405160405180910390a35050565b613acb80620001136000396000f3fe6080604052600436106200009e5760003560e01c80638da5cb5b11620000615780638da5cb5b146200018f5780639507d39a14620001bf578063d9ecad7b1462000203578063efc81a8c1462000223578063f2fde38b146200023d576200009e565b806324c75aa914620000a35780633ccfd60b14620000e75780635c10fa61146200010157806361bc221a1462000145578063715018a61462000175575b600080fd5b348015620000b057600080fd5b50620000cf6004803603810190620000c9919062001654565b6200026b565b604051620000de919062001ce4565b60405180910390f35b348015620000f457600080fd5b50620000ff62000295565b005b3480156200010e57600080fd5b506200012d6004803603810190620001279190620015a4565b620003ae565b6040516200013c919062001ac2565b60405180910390f35b3480156200015257600080fd5b506200015d62000583565b6040516200016c919062001c79565b60405180910390f35b3480156200018257600080fd5b506200018d62000590565b005b3480156200019c57600080fd5b50620001a762000621565b604051620001b6919062001aa5565b60405180910390f35b348015620001cc57600080fd5b50620001eb6004803603810190620001e5919062001654565b6200064a565b604051620001fa919062001ae6565b60405180910390f35b6200022160048036038101906200021b919062001680565b62000703565b005b3480156200023057600080fd5b506200023b62000edf565b005b3480156200024a57600080fd5b50620002696004803603810190620002639190620015a4565b62001106565b005b60006002600083815260200190815260200160002060009054906101000a900460ff169050919050565b6200029f6200120a565b73ffffffffffffffffffffffffffffffffffffffff16620002bf62000621565b73ffffffffffffffffffffffffffffffffffffffff161462000318576040517f08c379a00000000000000000000000000000000000000000000000000000000081526004016200030f9062001bad565b60405180910390fd5b60004790506000811162000363576040517f08c379a00000000000000000000000000000000000000000000000000000000081526004016200035a9062001c35565b60405180910390fd5b3373ffffffffffffffffffffffffffffffffffffffff166108fc829081150290604051600060405180830381858888f19350505050158015620003aa573d6000803e3d6000fd5b5050565b60606000620003bc62000583565b67ffffffffffffffff811115620003fc577f4e487b7100000000000000000000000000000000000000000000000000000000600052604160045260246000fd5b6040519080825280602002602001820160405280156200042b5781602001602082028036833780820191505090505b5090506000805b6200043c62000583565b8110156200057857600062000451826200064a565b90508573ffffffffffffffffffffffffffffffffffffffff168173ffffffffffffffffffffffffffffffffffffffff16638da5cb5b6040518163ffffffff1660e01b815260040160206040518083038186803b158015620004b157600080fd5b505afa158015620004c6573d6000803e3d6000fd5b505050506040513d601f19601f82011682018060405250810190620004ec9190620015d0565b73ffffffffffffffffffffffffffffffffffffffff16141562000561578184848151811062000544577f4e487b7100000000000000000000000000000000000000000000000000000000600052603260045260246000fd5b60200260200101818152505082806200055d9062001e88565b9350505b5080806200056f9062001e88565b91505062000432565b508192505050919050565b6000600180549050905090565b6200059a6200120a565b73ffffffffffffffffffffffffffffffffffffffff16620005ba62000621565b73ffffffffffffffffffffffffffffffffffffffff161462000613576040517f08c379a00000000000000000000000000000000000000000000000000000000081526004016200060a9062001bad565b60405180910390fd5b6200061f600062001212565b565b60008060009054906101000a900473ffffffffffffffffffffffffffffffffffffffff16905090565b6000600180549050821062000696576040517f08c379a00000000000000000000000000000000000000000000000000000000081526004016200068d9062001c13565b60405180910390fd5b60018281548110620006d1577f4e487b7100000000000000000000000000000000000000000000000000000000600052603260045260246000fd5b9060005260206000200160009054906101000a900473ffffffffffffffffffffffffffffffffffffffff169050919050565b60018054905082106200074d576040517f08c379a0000000000000000000000000000000000000000000000000000000008152600401620007449062001c57565b60405180910390fd5b600180549050811062000797576040517f08c379a00000000000000000000000000000000000000000000000000000000081526004016200078e9062001b47565b60405180910390fd5b80821415620007dd576040517f08c379a0000000000000000000000000000000000000000000000000000000008152600401620007d49062001bf1565b60405180910390fd5b60036002600084815260200190815260200160002060009054906101000a900460ff1660ff161062000846576040517f08c379a00000000000000000000000000000000000000000000000000000000081526004016200083d9062001b8b565b60405180910390fd5b60036002600083815260200190815260200160002060009054906101000a900460ff1660ff1610620008af576040517f08c379a0000000000000000000000000000000000000000000000000000000008152600401620008a69062001b03565b60405180910390fd5b670429d069189e00003414620008fc576040517f08c379a0000000000000000000000000000000000000000000000000000000008152600401620008f39062001b69565b60405180910390fd5b60006001838154811062000939577f4e487b7100000000000000000000000000000000000000000000000000000000600052603260045260246000fd5b9060005260206000200160009054906101000a900473ffffffffffffffffffffffffffffffffffffffff169050600060018381548110620009a3577f4e487b7100000000000000000000000000000000000000000000000000000000600052603260045260246000fd5b9060005260206000200160009054906101000a900473ffffffffffffffffffffffffffffffffffffffff1690508073ffffffffffffffffffffffffffffffffffffffff16638da5cb5b6040518163ffffffff1660e01b815260040160206040518083038186803b15801562000a1757600080fd5b505afa15801562000a2c573d6000803e3d6000fd5b505050506040513d601f19601f8201168201806040525081019062000a529190620015d0565b73ffffffffffffffffffffffffffffffffffffffff168273ffffffffffffffffffffffffffffffffffffffff16638da5cb5b6040518163ffffffff1660e01b815260040160206040518083038186803b15801562000aaf57600080fd5b505afa15801562000ac4573d6000803e3d6000fd5b505050506040513d601f19601f8201168201806040525081019062000aea9190620015d0565b73ffffffffffffffffffffffffffffffffffffffff161462000b43576040517f08c379a000000000000000000000000000000000000000000000000000000000815260040162000b3a9062001bcf565b60405180910390fd5b60006001805490509050600081600a62000b6060006064620012d6565b61ffff161062000bff578473ffffffffffffffffffffffffffffffffffffffff1663a54cf5a0856040518263ffffffff1660e01b815260040162000ba5919062001ae6565b60606040518083038186803b15801562000bbe57600080fd5b505afa15801562000bd3573d6000803e3d6000fd5b505050506040513d601f19601f8201168201806040525081019062000bf99190620015fc565b62000c0a565b62000c096200134e565b5b600a62000c1a60006064620012d6565b61ffff161062000cb9578573ffffffffffffffffffffffffffffffffffffffff1663c9dd1a23866040518263ffffffff1660e01b815260040162000c5f919062001ae6565b60606040518083038186803b15801562000c7857600080fd5b505afa15801562000c8d573d6000803e3d6000fd5b505050506040513d601f19601f8201168201806040525081019062000cb3919062001628565b62000cc4565b62000cc3620013ae565b5b60405180604001604052808873ffffffffffffffffffffffffffffffffffffffff1681526020018773ffffffffffffffffffffffffffffffffffffffff1681525060405162000d13906200140e565b62000d22949392919062001c96565b604051809103906000f08015801562000d3f573d6000803e3d6000fd5b5090508073ffffffffffffffffffffffffffffffffffffffff1663f2fde38b336040518263ffffffff1660e01b815260040162000d7d919062001aa5565b600060405180830381600087803b15801562000d9857600080fd5b505af115801562000dad573d6000803e3d6000fd5b505050506001819080600181540180825580915050600190039060005260206000200160009091909190916101000a81548173ffffffffffffffffffffffffffffffffffffffff021916908373ffffffffffffffffffffffffffffffffffffffff16021790555060006002600084815260200190815260200160002060006101000a81548160ff021916908360ff16021790555060026000878152602001908152602001600020600081819054906101000a900460ff168092919062000e739062001ed6565b91906101000a81548160ff021916908360ff1602179055505060026000868152602001908152602001600020600081819054906101000a900460ff168092919062000ebe9062001ed6565b91906101000a81548160ff021916908360ff16021790555050505050505050565b62000ee96200120a565b73ffffffffffffffffffffffffffffffffffffffff1662000f0962000621565b73ffffffffffffffffffffffffffffffffffffffff161462000f62576040517f08c379a000000000000000000000000000000000000000000000000000000000815260040162000f599062001bad565b60405180910390fd5b6000600180549050905060008162000f796200134e565b62000f83620013ae565b6040518060400160405280600073ffffffffffffffffffffffffffffffffffffffff168152602001600073ffffffffffffffffffffffffffffffffffffffff1681525060405162000fd4906200140e565b62000fe3949392919062001c96565b604051809103906000f08015801562001000573d6000803e3d6000fd5b5090508073ffffffffffffffffffffffffffffffffffffffff1663f2fde38b336040518263ffffffff1660e01b81526004016200103e919062001aa5565b600060405180830381600087803b1580156200105957600080fd5b505af11580156200106e573d6000803e3d6000fd5b505050506001819080600181540180825580915050600190039060005260206000200160009091909190916101000a81548173ffffffffffffffffffffffffffffffffffffffff021916908373ffffffffffffffffffffffffffffffffffffffff16021790555060006002600084815260200190815260200160002060006101000a81548160ff021916908360ff1602179055505050565b620011106200120a565b73ffffffffffffffffffffffffffffffffffffffff166200113062000621565b73ffffffffffffffffffffffffffffffffffffffff161462001189576040517f08c379a0000000000000000000000000000000000000000000000000000000008152600401620011809062001bad565b60405180910390fd5b600073ffffffffffffffffffffffffffffffffffffffff168173ffffffffffffffffffffffffffffffffffffffff161415620011fc576040517f08c379a0000000000000000000000000000000000000000000000000000000008152600401620011f39062001b25565b60405180910390fd5b620012078162001212565b50565b600033905090565b60008060009054906101000a900473ffffffffffffffffffffffffffffffffffffffff169050816000806101000a81548173ffffffffffffffffffffffffffffffffffffffff021916908373ffffffffffffffffffffffffffffffffffffffff1602179055508173ffffffffffffffffffffffffffffffffffffffff168173ffffffffffffffffffffffffffffffffffffffff167f8be0079c531659141344cd1fd0a4f28419497f9722a3daafe3b4186f6b6457e060405160405180910390a35050565b600080824233600354604051602001620012f39392919062001a62565b6040516020818303038152906040528051906020012060001c62001318919062001f37565b9050838162001328919062001d74565b9050600360008154809291906200133f9062001e88565b91905055508091505092915050565b620013586200141c565b6040518060600160405280620013726000610100620012d6565b61ffff1681526020016200138a6000610100620012d6565b61ffff168152602001620013a26000610100620012d6565b61ffff16815250905090565b620013b862001449565b6040518060600160405280620013d26064610384620012d6565b61ffff168152602001620013ea6064610384620012d6565b61ffff168152602001620014026064610384620012d6565b61ffff16815250905090565b611844806200225283390190565b6040518060600160405280600061ffff168152602001600061ffff168152602001600061ffff1681525090565b6040518060600160405280600061ffff168152602001600061ffff168152602001600061ffff1681525090565b600081359050620014878162002203565b92915050565b6000815190506200149e8162002203565b92915050565b600060608284031215620014b757600080fd5b620014c3606062001d01565b90506000620014d58482850162001576565b6000830152506020620014eb8482850162001576565b6020830152506040620015018482850162001576565b60408301525092915050565b6000606082840312156200152057600080fd5b6200152c606062001d01565b905060006200153e8482850162001576565b6000830152506020620015548482850162001576565b60208301525060406200156a8482850162001576565b60408301525092915050565b60008151905062001587816200221d565b92915050565b6000813590506200159e8162002237565b92915050565b600060208284031215620015b757600080fd5b6000620015c78482850162001476565b91505092915050565b600060208284031215620015e357600080fd5b6000620015f3848285016200148d565b91505092915050565b6000606082840312156200160f57600080fd5b60006200161f84828501620014a4565b91505092915050565b6000606082840312156200163b57600080fd5b60006200164b848285016200150d565b91505092915050565b6000602082840312156200166757600080fd5b600062001677848285016200158d565b91505092915050565b600080604083850312156200169457600080fd5b6000620016a4858286016200158d565b9250506020620016b7858286016200158d565b9150509250929050565b6000620016cf838362001a14565b60208301905092915050565b620016e68162001dd1565b82525050565b620016f78162001dd1565b82525050565b620017126200170c8262001dd1565b62001f05565b82525050565b6000620017258262001d3a565b62001731818562001d52565b93506200173e8362001d2a565b8060005b8381101562001775578151620017598882620016c1565b9750620017668362001d45565b92505060018101905062001742565b5085935050505092915050565b6200178d8162001e2a565b82525050565b6000620017a2601c8362001d63565b9150620017af826200201a565b602082019050919050565b6000620017c960268362001d63565b9150620017d68262002043565b604082019050919050565b6000620017f060168362001d63565b9150620017fd8262002092565b602082019050919050565b600062001817600d8362001d63565b91506200182482620020bb565b602082019050919050565b60006200183e601c8362001d63565b91506200184b82620020e4565b602082019050919050565b60006200186560208362001d63565b915062001872826200210d565b602082019050919050565b60006200188c601d8362001d63565b9150620018998262002136565b602082019050919050565b6000620018b360168362001d63565b9150620018c0826200215f565b602082019050919050565b6000620018da60138362001d63565b9150620018e78262002188565b602082019050919050565b60006200190160148362001d63565b91506200190e82620021b1565b602082019050919050565b60006200192860168362001d63565b91506200193582620021da565b602082019050919050565b60608201600082015162001958600085018262001a03565b5060208201516200196d602085018262001a03565b50604082015162001982604085018262001a03565b50505050565b604082016000820151620019a06000850182620016db565b506020820151620019b56020850182620016db565b50505050565b606082016000820151620019d3600085018262001a03565b506020820151620019e8602085018262001a03565b506040820151620019fd604085018262001a03565b50505050565b62001a0e8162001de5565b82525050565b62001a1f8162001e13565b82525050565b62001a308162001e13565b82525050565b62001a4b62001a458262001e13565b62001f2d565b82525050565b62001a5c8162001e1d565b82525050565b600062001a70828662001a36565b60208201915062001a828285620016fd565b60148201915062001a94828462001a36565b602082019150819050949350505050565b600060208201905062001abc6000830184620016ec565b92915050565b6000602082019050818103600083015262001ade818462001718565b905092915050565b600060208201905062001afd600083018462001782565b92915050565b6000602082019050818103600083015262001b1e8162001793565b9050919050565b6000602082019050818103600083015262001b4081620017ba565b9050919050565b6000602082019050818103600083015262001b6281620017e1565b9050919050565b6000602082019050818103600083015262001b848162001808565b9050919050565b6000602082019050818103600083015262001ba6816200182f565b9050919050565b6000602082019050818103600083015262001bc88162001856565b9050919050565b6000602082019050818103600083015262001bea816200187d565b9050919050565b6000602082019050818103600083015262001c0c81620018a4565b9050919050565b6000602082019050818103600083015262001c2e81620018cb565b9050919050565b6000602082019050818103600083015262001c5081620018f2565b9050919050565b6000602082019050818103600083015262001c728162001919565b9050919050565b600060208201905062001c90600083018462001a25565b92915050565b60006101208201905062001cae600083018762001a25565b62001cbd602083018662001940565b62001ccc6080830185620019bb565b62001cdb60e083018462001988565b95945050505050565b600060208201905062001cfb600083018462001a51565b92915050565b600062001d0d62001d20565b905062001d1b828262001e52565b919050565b6000604051905090565b6000819050602082019050919050565b600081519050919050565b6000602082019050919050565b600082825260208201905092915050565b600082825260208201905092915050565b600062001d818262001e13565b915062001d8e8362001e13565b9250827fffffffffffffffffffffffffffffffffffffffffffffffffffffffffffffffff0382111562001dc65762001dc562001f6f565b5b828201905092915050565b600062001dde8262001df3565b9050919050565b600061ffff82169050919050565b600073ffffffffffffffffffffffffffffffffffffffff82169050919050565b6000819050919050565b600060ff82169050919050565b600062001e378262001e3e565b9050919050565b600062001e4b8262001df3565b9050919050565b62001e5d8262001ffc565b810181811067ffffffffffffffff8211171562001e7f5762001e7e62001fcd565b5b80604052505050565b600062001e958262001e13565b91507fffffffffffffffffffffffffffffffffffffffffffffffffffffffffffffffff82141562001ecb5762001eca62001f6f565b5b600182019050919050565b600062001ee38262001e1d565b915060ff82141562001efa5762001ef962001f6f565b5b600182019050919050565b600062001f128262001f19565b9050919050565b600062001f26826200200d565b9050919050565b6000819050919050565b600062001f448262001e13565b915062001f518362001e13565b92508262001f645762001f6362001f9e565b5b828206905092915050565b7f4e487b7100000000000000000000000000000000000000000000000000000000600052601160045260246000fd5b7f4e487b7100000000000000000000000000000000000000000000000000000000600052601260045260246000fd5b7f4e487b7100000000000000000000000000000000000000000000000000000000600052604160045260246000fd5b6000601f19601f8301169050919050565b60008160601b9050919050565b7f626f7832206861732072656163686564206272656564206c696d697400000000600082015250565b7f4f776e61626c653a206e6577206f776e657220697320746865207a65726f206160008201527f6464726573730000000000000000000000000000000000000000000000000000602082015250565b7f703220696e646578206f7574206f6620626f756e647300000000000000000000600082015250565b7f696e76616c696420707269636500000000000000000000000000000000000000600082015250565b7f626f7831206861732072656163686564206272656564206c696d697400000000600082015250565b7f4f776e61626c653a2063616c6c6572206973206e6f7420746865206f776e6572600082015250565b7f626f78657320617265206e6f742066726f6d2073616d65206f776e6572000000600082015250565b7f63616e6e6f7420627265656420776974682073656c6600000000000000000000600082015250565b7f696e646578206f7574206f6620626f756e647300000000000000000000000000600082015250565b7f6e6f2066756e647320746f207769746864726177000000000000000000000000600082015250565b7f703120696e646578206f7574206f6620626f756e647300000000000000000000600082015250565b6200220e8162001dd1565b81146200221a57600080fd5b50565b620022288162001de5565b81146200223457600080fd5b50565b620022428162001e13565b81146200224e57600080fd5b5056fe60806040526000600760006101000a81548160ff0219169083151502179055503480156200002c57600080fd5b50604051620018443803806200184483398181016040528101906200005291906200042b565b6200007262000066620001f560201b60201c565b620001fd60201b60201c565b8360018190555082600260008201518160000160006101000a81548161ffff021916908361ffff16021790555060208201518160000160026101000a81548161ffff021916908361ffff16021790555060408201518160000160046101000a81548161ffff021916908361ffff16021790555090505081600360008201518160000160006101000a81548161ffff021916908361ffff16021790555060208201518160000160026101000a81548161ffff021916908361ffff16021790555060408201518160000160046101000a81548161ffff021916908361ffff16021790555090505080600460008201518160000160006101000a81548173ffffffffffffffffffffffffffffffffffffffff021916908373ffffffffffffffffffffffffffffffffffffffff16021790555060208201518160010160006101000a81548173ffffffffffffffffffffffffffffffffffffffff021916908373ffffffffffffffffffffffffffffffffffffffff16021790555090505050505050620005d1565b600033905090565b60008060009054906101000a900473ffffffffffffffffffffffffffffffffffffffff169050816000806101000a81548173ffffffffffffffffffffffffffffffffffffffff021916908373ffffffffffffffffffffffffffffffffffffffff1602179055508173ffffffffffffffffffffffffffffffffffffffff168173ffffffffffffffffffffffffffffffffffffffff167f8be0079c531659141344cd1fd0a4f28419497f9722a3daafe3b4186f6b6457e060405160405180910390a35050565b600081519050620002d28162000583565b92915050565b600060608284031215620002eb57600080fd5b620002f7606062000498565b905060006200030984828501620003fd565b60008301525060206200031f84828501620003fd565b60208301525060406200033584828501620003fd565b60408301525092915050565b6000604082840312156200035457600080fd5b62000360604062000498565b905060006200037284828501620002c1565b60008301525060206200038884828501620002c1565b60208301525092915050565b600060608284031215620003a757600080fd5b620003b3606062000498565b90506000620003c584828501620003fd565b6000830152506020620003db84828501620003fd565b6020830152506040620003f184828501620003fd565b60408301525092915050565b6000815190506200040e816200059d565b92915050565b6000815190506200042581620005b7565b92915050565b60008060008061012085870312156200044357600080fd5b6000620004538782880162000414565b94505060206200046687828801620002d8565b9350506080620004798782880162000394565b92505060e06200048c8782880162000341565b91505092959194509250565b6000620004a4620004b7565b9050620004b282826200050d565b919050565b6000604051905090565b6000620004ce82620004e3565b9050919050565b600061ffff82169050919050565b600073ffffffffffffffffffffffffffffffffffffffff82169050919050565b6000819050919050565b620005188262000572565b810181811067ffffffffffffffff821117156200053a576200053962000543565b5b80604052505050565b7f4e487b7100000000000000000000000000000000000000000000000000000000600052604160045260246000fd5b6000601f19601f8301169050919050565b6200058e81620004c1565b81146200059a57600080fd5b50565b620005a881620004d5565b8114620005b457600080fd5b50565b620005c28162000503565b8114620005ce57600080fd5b50565b61126380620005e16000396000f3fe6080604052600436106100e85760003560e01c8063a035b1fe1161008a578063af640d0f11610059578063af640d0f14610290578063c9dd1a23146102bb578063cf08fed5146102f8578063f2fde38b14610325576100e8565b8063a035b1fe14610207578063a0d5850114610232578063a54cf5a014610249578063a6f2ae3a14610286576100e8565b8063715018a6116100c6578063715018a61461016f57806380c9419e146101865780638da5cb5b146101af578063949d225d146101da576100e8565b80631747a57b146100ed57806317b222e1146101185780634f72b54b14610144575b600080fd5b3480156100f957600080fd5b5061010261034e565b60405161010f9190610ea4565b60405180910390f35b34801561012457600080fd5b5061012d610361565b60405161013b929190610e7b565b60405180910390f35b34801561015057600080fd5b506101596103b3565b6040516101669190610fac565b60405180910390f35b34801561017b57600080fd5b506101846103bb565b005b34801561019257600080fd5b506101ad60048036038101906101a89190610cdc565b610443565b005b3480156101bb57600080fd5b506101c46104e4565b6040516101d19190610e60565b60405180910390f35b3480156101e657600080fd5b506101ef61050d565b6040516101fe93929190610f75565b60405180910390f35b34801561021357600080fd5b5061021c61054f565b6040516102299190610fac565b60405180910390f35b34801561023e57600080fd5b50610247610555565b005b34801561025557600080fd5b50610270600480360381019061026b9190610c64565b6105ee565b60405161027d9190610f3f565b60405180910390f35b61028e610734565b005b34801561029c57600080fd5b506102a561083b565b6040516102b29190610fac565b60405180910390f35b3480156102c757600080fd5b506102e260048036038101906102dd9190610c64565b610841565b6040516102ef9190610f5a565b60405180910390f35b34801561030457600080fd5b5061030d610987565b60405161031c93929190610f75565b60405180910390f35b34801561033157600080fd5b5061034c60048036038101906103479190610c3b565b6109c9565b005b600760009054906101000a900460ff1681565b60048060000160009054906101000a900473ffffffffffffffffffffffffffffffffffffffff16908060010160009054906101000a900473ffffffffffffffffffffffffffffffffffffffff16905082565b600042905090565b6103c3610ac1565b73ffffffffffffffffffffffffffffffffffffffff166103e16104e4565b73ffffffffffffffffffffffffffffffffffffffff1614610437576040517f08c379a000000000000000000000000000000000000000000000000000000000815260040161042e90610f1f565b60405180910390fd5b6104416000610ac9565b565b61044b610ac1565b73ffffffffffffffffffffffffffffffffffffffff166104696104e4565b73ffffffffffffffffffffffffffffffffffffffff16146104bf576040517f08c379a00000000000000000000000000000000000000000000000000000000081526004016104b690610f1f565b60405180910390fd5b806006819055506001600760006101000a81548160ff02191690831515021790555050565b60008060009054906101000a900473ffffffffffffffffffffffffffffffffffffffff16905090565b60038060000160009054906101000a900461ffff16908060000160029054906101000a900461ffff16908060000160049054906101000a900461ffff16905083565b60065481565b61055d610ac1565b73ffffffffffffffffffffffffffffffffffffffff1661057b6104e4565b73ffffffffffffffffffffffffffffffffffffffff16146105d1576040517f08c379a00000000000000000000000000000000000000000000000000000000081526004016105c890610f1f565b60405180910390fd5b6000600760006101000a81548160ff021916908315150217905550565b6105f6610b8d565b60008060008473ffffffffffffffffffffffffffffffffffffffff1663cf08fed56040518163ffffffff1660e01b815260040160606040518083038186803b15801561064157600080fd5b505afa158015610655573d6000803e3d6000fd5b505050506040513d601f19601f820116820180604052508101906106799190610c8d565b8093508194508295505050506040518060600160405280600285600260000160009054906101000a900461ffff166106b19190610fd8565b6106bb9190611010565b61ffff168152602001600284600260000160029054906101000a900461ffff166106e59190610fd8565b6106ef9190611010565b61ffff168152602001600283600260000160049054906101000a900461ffff166107199190610fd8565b6107239190611010565b61ffff168152509350505050919050565b600760009054906101000a900460ff16610783576040517f08c379a000000000000000000000000000000000000000000000000000000000815260040161077a90610ebf565b60405180910390fd5b60065434146107c7576040517f08c379a00000000000000000000000000000000000000000000000000000000081526004016107be90610eff565b60405180910390fd5b6000600760006101000a81548160ff0219169083151502179055506107ea6104e4565b73ffffffffffffffffffffffffffffffffffffffff166108fc349081150290604051600060405180830381858888f1935050505015801561082f573d6000803e3d6000fd5b5061083933610ac9565b565b60015481565b610849610bba565b60008060008473ffffffffffffffffffffffffffffffffffffffff1663949d225d6040518163ffffffff1660e01b815260040160606040518083038186803b15801561089457600080fd5b505afa1580156108a8573d6000803e3d6000fd5b505050506040513d601f19601f820116820180604052508101906108cc9190610c8d565b8093508194508295505050506040518060600160405280600285600360000160009054906101000a900461ffff166109049190610fd8565b61090e9190611010565b61ffff168152602001600284600360000160029054906101000a900461ffff166109389190610fd8565b6109429190611010565b61ffff168152602001600283600360000160049054906101000a900461ffff1661096c9190610fd8565b6109769190611010565b61ffff168152509350505050919050565b60028060000160009054906101000a900461ffff16908060000160029054906101000a900461ffff16908060000160049054906101000a900461ffff16905083565b6109d1610ac1565b73ffffffffffffffffffffffffffffffffffffffff166109ef6104e4565b73ffffffffffffffffffffffffffffffffffffffff1614610a45576040517f08c379a0000000000000000000000000000000000000000000000000000000008152600401610a3c90610f1f565b60405180910390fd5b600073ffffffffffffffffffffffffffffffffffffffff168173ffffffffffffffffffffffffffffffffffffffff161415610ab5576040517f08c379a0000000000000000000000000000000000000000000000000000000008152600401610aac90610edf565b60405180910390fd5b610abe81610ac9565b50565b600033905090565b60008060009054906101000a900473ffffffffffffffffffffffffffffffffffffffff169050816000806101000a81548173ffffffffffffffffffffffffffffffffffffffff021916908373ffffffffffffffffffffffffffffffffffffffff1602179055508173ffffffffffffffffffffffffffffffffffffffff168173ffffffffffffffffffffffffffffffffffffffff167f8be0079c531659141344cd1fd0a4f28419497f9722a3daafe3b4186f6b6457e060405160405180910390a35050565b6040518060600160405280600061ffff168152602001600061ffff168152602001600061ffff1681525090565b6040518060600160405280600061ffff168152602001600061ffff168152602001600061ffff1681525090565b600081359050610bf6816111d1565b92915050565b600081359050610c0b816111e8565b92915050565b600081519050610c20816111ff565b92915050565b600081359050610c3581611216565b92915050565b600060208284031215610c4d57600080fd5b6000610c5b84828501610be7565b91505092915050565b600060208284031215610c7657600080fd5b6000610c8484828501610bfc565b91505092915050565b600080600060608486031215610ca257600080fd5b6000610cb086828701610c11565b9350506020610cc186828701610c11565b9250506040610cd286828701610c11565b9150509250925092565b600060208284031215610cee57600080fd5b6000610cfc84828501610c26565b91505092915050565b610d0e81611041565b82525050565b610d1d81611053565b82525050565b6000610d30601183610fc7565b9150610d3b82611107565b602082019050919050565b6000610d53602683610fc7565b9150610d5e82611130565b604082019050919050565b6000610d76600d83610fc7565b9150610d818261117f565b602082019050919050565b6000610d99602083610fc7565b9150610da4826111a8565b602082019050919050565b606082016000820151610dc56000850182610e33565b506020820151610dd86020850182610e33565b506040820151610deb6040850182610e33565b50505050565b606082016000820151610e076000850182610e33565b506020820151610e1a6020850182610e33565b506040820151610e2d6040850182610e33565b50505050565b610e3c81611071565b82525050565b610e4b81611071565b82525050565b610e5a8161109f565b82525050565b6000602082019050610e756000830184610d05565b92915050565b6000604082019050610e906000830185610d05565b610e9d6020830184610d05565b9392505050565b6000602082019050610eb96000830184610d14565b92915050565b60006020820190508181036000830152610ed881610d23565b9050919050565b60006020820190508181036000830152610ef881610d46565b9050919050565b60006020820190508181036000830152610f1881610d69565b9050919050565b60006020820190508181036000830152610f3881610d8c565b9050919050565b6000606082019050610f546000830184610daf565b92915050565b6000606082019050610f6f6000830184610df1565b92915050565b6000606082019050610f8a6000830186610e42565b610f976020830185610e42565b610fa46040830184610e42565b949350505050565b6000602082019050610fc16000830184610e51565b92915050565b600082825260208201905092915050565b6000610fe382611071565b9150610fee83611071565b92508261ffff03821115611005576110046110a9565b5b828201905092915050565b600061101b82611071565b915061102683611071565b925082611036576110356110d8565b5b828204905092915050565b600061104c8261107f565b9050919050565b60008115159050919050565b600061106a82611041565b9050919050565b600061ffff82169050919050565b600073ffffffffffffffffffffffffffffffffffffffff82169050919050565b6000819050919050565b7f4e487b7100000000000000000000000000000000000000000000000000000000600052601160045260246000fd5b7f4e487b7100000000000000000000000000000000000000000000000000000000600052601260045260246000fd5b7f626f78206973206e6f74206c6973746564000000000000000000000000000000600082015250565b7f4f776e61626c653a206e6577206f776e657220697320746865207a65726f206160008201527f6464726573730000000000000000000000000000000000000000000000000000602082015250565b7f696e76616c696420707269636500000000000000000000000000000000000000600082015250565b7f4f776e61626c653a2063616c6c6572206973206e6f7420746865206f776e6572600082015250565b6111da81611041565b81146111e557600080fd5b50565b6111f18161105f565b81146111fc57600080fd5b50565b61120881611071565b811461121357600080fd5b50565b61121f8161109f565b811461122a57600080fd5b5056fea26469706673582212202d3f3ed8c9804bcc35f63dbf6cb4ab44a84d4e5406525abe67368ce767a8d73864736f6c63430008010033a264697066735822122058856dfa633da42ee2429b095a13debb0460d906f6d75c7d24f2170c814420f364736f6c63430008010033",
  "immutableReferences": {},
  "source": "// SPDX-License-Identifier: CC-BY-4.0\npragma solidity 0.8.1;\n\nimport \"./Box.sol\";\n\nimport \"openzeppelin-solidity/contracts/access/Ownable.sol\";\n\ncontract BoxFactory is Ownable {\n    Box[] private _boxes;\n    mapping(uint256 => uint8) private _breedCounts;\n\n    uint256 private nonce = 0;\n\n    function counter() public view returns (uint256) {\n        return _boxes.length;\n    }\n\n    function get(uint256 _index) public view returns (Box) {\n        require(_index < _boxes.length, \"index out of bounds\");\n        return _boxes[_index];\n    }\n\n    function getBreedCount(uint256 _index) public view returns (uint8) {\n        return _breedCounts[_index];\n    }\n\n    function create() public onlyOwner {\n        uint256 _index = _boxes.length;\n        Box box = new Box(_index, randomColor(), randomSize(), Box.Parents(address(0), address(0)));\n        box.transferOwnership(msg.sender);\n\n        _boxes.push(box);\n        _breedCounts[_index] = 0;\n    }\n\n    function ownedBoxes(address owner) public view returns (uint256[] memory) {\n        uint256[] memory indexes = new uint256[](counter());\n        uint256 i = 0;\n        for (uint256 j = 0; j < counter(); j++) {\n            Box box = get(j);\n            if (box.owner() == owner) {\n                indexes[i] = j;\n                i++;\n            }\n        }\n        return indexes;\n    }\n\n    function breed(uint256 p1, uint256 p2) public payable {\n        require(p1 < _boxes.length, \"p1 index out of bounds\");\n        require(p2 < _boxes.length, \"p2 index out of bounds\");\n        require(p1 != p2, \"cannot breed with self\");\n        require(_breedCounts[p1] < 3, \"box1 has reached breed limit\");\n        require(_breedCounts[p2] < 3, \"box2 has reached breed limit\");\n        require(msg.value == 0.3 ether, \"invalid price\");\n\n        Box box1 = _boxes[p1];\n        Box box2 = _boxes[p2];\n        require(box1.owner() == box2.owner(), \"boxes are not from same owner\");\n\n        uint256 _index = _boxes.length;\n        Box box = new Box(\n            _index,\n            random(0, 100) < 10 ? randomColor() : box1.avgColor(box2),\n            random(0, 100) < 10 ? randomSize() : box1.avgSize(box2),\n            Box.Parents(address(box1), address(box2))\n        );\n        box.transferOwnership(msg.sender);\n\n        _boxes.push(box);\n        _breedCounts[_index] = 0;\n        _breedCounts[p1]++;\n        _breedCounts[p2]++;\n    }\n\n    function withdraw() public onlyOwner {\n        uint256 balance = address(this).balance;\n\n        require(balance > 0, \"no funds to withdraw\");\n        payable(msg.sender).transfer(balance);\n    }\n\n    function randomSize() internal returns (Box.Size memory) {\n        return Box.Size(random(100, 900), random(100, 900), random(100, 900));\n    }\n\n    function randomColor() internal returns (Box.Color memory) {\n        return Box.Color(random(0, 256), random(0, 256), random(0, 256));\n    }\n\n    function random(uint256 offset, uint256 modulo) internal returns (uint16) {\n        uint256 randomnumber = uint256(\n            keccak256(abi.encodePacked(block.timestamp, msg.sender, nonce))\n        ) % modulo;\n\n        randomnumber = randomnumber + offset;\n        nonce++;\n        return uint16(randomnumber);\n    }\n}\n",
  "sourcePath": "/home/cetin/boxyz/contract/contracts/BoxFactory.sol",
  "compiler": {
    "name": "solc",
    "version": "0.8.1+commit.df193b15.Emscripten.clang"
  },
  "schemaVersion": "3.4.6",
  "updatedAt": "2022-04-16T09:55:30.259Z",
  "networkType": "ethereum",
  "devdoc": {
    "kind": "dev",
    "methods": {
      "owner()": {
        "details": "Returns the address of the current owner."
      },
      "renounceOwnership()": {
        "details": "Leaves the contract without owner. It will not be possible to call `onlyOwner` functions anymore. Can only be called by the current owner. NOTE: Renouncing ownership will leave the contract without an owner, thereby removing any functionality that is only available to the owner."
      },
      "transferOwnership(address)": {
        "details": "Transfers ownership of the contract to a new account (`newOwner`). Can only be called by the current owner."
      }
    },
    "version": 1
  },
  "userdoc": {
    "kind": "user",
    "methods": {},
    "version": 1
  }
}